{
    "_format": "hh-sol-artifact-1",
    "contractName": "Insurance",
    "sourceName": "contracts/Insurance.sol",
    "abi": [
        {
            "inputs": [],
            "stateMutability": "nonpayable",
            "type": "constructor"
        },
        {
            "anonymous": false,
            "inputs": [
                {
                    "indexed": true,
                    "internalType": "address",
                    "name": "insuredAddress",
                    "type": "address"
                },
                {
                    "indexed": false,
                    "internalType": "uint256",
                    "name": "insurancePrice",
                    "type": "uint256"
                }
            ],
            "name": "Insured",
            "type": "event"
        },
        {
            "stateMutability": "payable",
            "type": "fallback"
        },
        {
            "inputs": [
                {
                    "internalType": "address",
                    "name": "",
                    "type": "address"
                }
            ],
            "name": "addressToAmount",
            "outputs": [
                {
                    "internalType": "uint256",
                    "name": "",
                    "type": "uint256"
                }
            ],
            "stateMutability": "view",
            "type": "function"
        },
        {
            "inputs": [
                {
                    "internalType": "string",
                    "name": "cropType",
                    "type": "string"
                },
                {
                    "internalType": "uint256",
                    "name": "areaSize",
                    "type": "uint256"
                }
            ],
            "name": "calculateInsurancePrice",
            "outputs": [
                {
                    "internalType": "uint256",
                    "name": "",
                    "type": "uint256"
                }
            ],
            "stateMutability": "view",
            "type": "function"
        },
        {
            "inputs": [],
            "name": "checkIsInsured",
            "outputs": [
                {
                    "internalType": "bool",
                    "name": "",
                    "type": "bool"
                }
            ],
            "stateMutability": "view",
            "type": "function"
        },
        {
            "inputs": [
                {
                    "internalType": "string",
                    "name": "",
                    "type": "string"
                }
            ],
            "name": "cropBasePrices",
            "outputs": [
                {
                    "internalType": "uint256",
                    "name": "",
                    "type": "uint256"
                }
            ],
            "stateMutability": "view",
            "type": "function"
        },
        {
            "inputs": [],
            "name": "fundContract",
            "outputs": [],
            "stateMutability": "payable",
            "type": "function"
        },
        {
            "inputs": [
                {
                    "internalType": "string",
                    "name": "cropType",
                    "type": "string"
                },
                {
                    "internalType": "uint256",
                    "name": "areaSize",
                    "type": "uint256"
                }
            ],
            "name": "getInsured",
            "outputs": [],
            "stateMutability": "payable",
            "type": "function"
        },
        {
            "inputs": [],
            "name": "getTotalInsurancePoolAmount",
            "outputs": [
                {
                    "internalType": "uint256",
                    "name": "",
                    "type": "uint256"
                }
            ],
            "stateMutability": "view",
            "type": "function"
        },
        {
            "inputs": [
                {
                    "internalType": "address",
                    "name": "deservingAddress",
                    "type": "address"
                },
                {
                    "internalType": "uint256",
                    "name": "deservingAmount",
                    "type": "uint256"
                }
            ],
            "name": "giveInsuranceMoney",
            "outputs": [],
            "stateMutability": "nonpayable",
            "type": "function"
        },
        {
            "inputs": [],
            "name": "hardDeleteData",
            "outputs": [],
            "stateMutability": "nonpayable",
            "type": "function"
        },
        {
            "inputs": [
                {
                    "internalType": "address",
                    "name": "",
                    "type": "address"
                }
            ],
            "name": "insuranceDetails",
            "outputs": [
                {
                    "internalType": "string",
                    "name": "cropType",
                    "type": "string"
                },
                {
                    "internalType": "uint256",
                    "name": "areaSize",
                    "type": "uint256"
                },
                {
                    "internalType": "uint256",
                    "name": "insurancePrice",
                    "type": "uint256"
                }
            ],
            "stateMutability": "view",
            "type": "function"
        },
        {
            "inputs": [
                {
                    "internalType": "uint256",
                    "name": "",
                    "type": "uint256"
                }
            ],
            "name": "insuredAddresses",
            "outputs": [
                {
                    "internalType": "address",
                    "name": "",
                    "type": "address"
                }
            ],
            "stateMutability": "view",
            "type": "function"
        },
        {
            "inputs": [],
            "name": "owner",
            "outputs": [
                {
                    "internalType": "address",
                    "name": "",
                    "type": "address"
                }
            ],
            "stateMutability": "view",
            "type": "function"
        },
        {
            "inputs": [],
            "name": "payoutAllInsuranceMoney",
            "outputs": [],
            "stateMutability": "nonpayable",
            "type": "function"
        },
        {
            "inputs": [
                {
                    "internalType": "string",
                    "name": "cropType",
                    "type": "string"
                },
                {
                    "internalType": "uint256",
                    "name": "basePrice",
                    "type": "uint256"
                }
            ],
            "name": "setCropBasePrice",
            "outputs": [],
            "stateMutability": "nonpayable",
            "type": "function"
        },
        {
            "inputs": [],
            "name": "totalAmountToBePaidOut",
            "outputs": [
                {
                    "internalType": "uint256",
                    "name": "",
                    "type": "uint256"
                }
            ],
            "stateMutability": "view",
            "type": "function"
        },
        {
            "inputs": [],
            "name": "withdrawContract",
            "outputs": [],
            "stateMutability": "nonpayable",
            "type": "function"
        },
        {
            "inputs": [],
            "name": "withdrawInsuranceMoney",
            "outputs": [],
            "stateMutability": "nonpayable",
            "type": "function"
        },
        {
            "stateMutability": "payable",
            "type": "receive"
        }
    ],
    "bytecode": "0x60a060405260006002553480156200001657600080fd5b503373ffffffffffffffffffffffffffffffffffffffff1660808173ffffffffffffffffffffffffffffffffffffffff1660601b81525050631dcd65006004604051620000639062000761565b9081526020016040518091039020819055506329b9270060046040516200008a906200074a565b9081526020016040518091039020819055506323c346006004604051620000b190620006c0565b908152602001604051809103902081905550632faf08006004604051620000d89062000733565b908152602001604051809103902081905550633b9aca006004604051620000ff90620006a9565b9081526020016040518091039020819055506320c8558060046040516200012690620007a6565b9081526020016040518091039020819055506326be368060046040516200014d9062000778565b908152602001604051809103902081905550631dcd6500600460405162000174906200067b565b9081526020016040518091039020819055506347868c0060046040516200019b906200078f565b9081526020016040518091039020819055506335a4e9006004604051620001c2906200071c565b908152602001604051809103902081905550632cb417806004604051620001e990620007bd565b908152602001604051809103902081905550634190ab0060046040516200021090620006d7565b9081526020016040518091039020819055506332a9f8806004604051620002379062000705565b908152602001604051809103902081905550634d7c6d0060046040516200025e9062000692565b9081526020016040518091039020819055506359682f0060046040516200028590620006ee565b908152602001604051809103902081905550620007df565b6000620002ac600483620007d4565b91507f6f617473000000000000000000000000000000000000000000000000000000006000830152600482019050919050565b6000620002ee600883620007d4565b91507f746f6d61746f65730000000000000000000000000000000000000000000000006000830152600882019050919050565b600062000330600683620007d4565b91507f636f74746f6e00000000000000000000000000000000000000000000000000006000830152600682019050919050565b600062000372600483620007d4565b91507f72696365000000000000000000000000000000000000000000000000000000006000830152600482019050919050565b6000620003b4600983620007d4565b91507f737567617263616e6500000000000000000000000000000000000000000000006000830152600982019050919050565b6000620003f6600683620007d4565b91507f67726170657300000000000000000000000000000000000000000000000000006000830152600682019050919050565b600062000438600883620007d4565b91507f706f7461746f65730000000000000000000000000000000000000000000000006000830152600882019050919050565b60006200047a600983620007d4565b91507f73756e666c6f77657200000000000000000000000000000000000000000000006000830152600982019050919050565b6000620004bc600883620007d4565b91507f736f796265616e730000000000000000000000000000000000000000000000006000830152600882019050919050565b6000620004fe600483620007d4565b91507f636f726e000000000000000000000000000000000000000000000000000000006000830152600482019050919050565b600062000540600583620007d4565b91507f77686561740000000000000000000000000000000000000000000000000000006000830152600582019050919050565b600062000582600783620007d4565b91507f736f726768756d000000000000000000000000000000000000000000000000006000830152600782019050919050565b6000620005c4600783620007d4565b91507f7065616e757473000000000000000000000000000000000000000000000000006000830152600782019050919050565b600062000606600683620007d4565b91507f6261726c657900000000000000000000000000000000000000000000000000006000830152600682019050919050565b600062000648600683620007d4565b91507f63616e6f6c6100000000000000000000000000000000000000000000000000006000830152600682019050919050565b600062000688826200029d565b9150819050919050565b60006200069f82620002df565b9150819050919050565b6000620006b68262000321565b9150819050919050565b6000620006cd8262000363565b9150819050919050565b6000620006e482620003a5565b9150819050919050565b6000620006fb82620003e7565b9150819050919050565b6000620007128262000429565b9150819050919050565b600062000729826200046b565b9150819050919050565b60006200074082620004ad565b9150819050919050565b60006200075782620004ef565b9150819050919050565b60006200076e8262000531565b9150819050919050565b6000620007858262000573565b9150819050919050565b60006200079c82620005b5565b9150819050919050565b6000620007b382620005f7565b9150819050919050565b6000620007ca8262000639565b9150819050919050565b600081905092915050565b60805160601c611c2e62000821600039600081816106e9015281816107bf015281816108c601528181610af201528181610dfb0152610eb00152611c2e6000f3fe6080604052600436106101025760003560e01c8063a758ce6b11610095578063c41af91111610064578063c41af911146102e9578063c79ec4f514610312578063d5e1196a14610329578063e2533c3514610366578063f19ea3bd1461039157610111565b8063a758ce6b14610288578063a9d288371461029f578063b14a5a91146102b6578063bd097e21146102df57610111565b80636e2c1cf9116100d15780636e2c1cf9146101dc5780638da5cb5b1461020757806398c04073146102325780639da9df3e1461027157610111565b80630d96f8f71461011b578063399aba90146101465780633c7e7d28146101625780636a6cda751461019f57610111565b366101115761010f6103ce565b005b6101196103ce565b005b34801561012757600080fd5b506101306103dd565b60405161013d919061173c565b60405180910390f35b610160600480360381019061015b9190611415565b610429565b005b34801561016e57600080fd5b506101896004803603810190610184919061136f565b610619565b6040516101969190611835565b60405180910390f35b3480156101ab57600080fd5b506101c660048036038101906101c19190611415565b610631565b6040516101d39190611835565b60405180910390f35b3480156101e857600080fd5b506101f16106e1565b6040516101fe9190611835565b60405180910390f35b34801561021357600080fd5b5061021c6106e7565b6040516102299190611721565b60405180910390f35b34801561023e57600080fd5b506102596004803603810190610254919061136f565b61070b565b60405161026893929190611757565b60405180910390f35b34801561027d57600080fd5b506102866107bd565b005b34801561029457600080fd5b5061029d6108c4565b005b3480156102ab57600080fd5b506102b4610af0565b005b3480156102c257600080fd5b506102dd60048036038101906102d89190611415565b610df9565b005b6102e76103ce565b005b3480156102f557600080fd5b50610310600480360381019061030b9190611398565b610eae565b005b34801561031e57600080fd5b50610327610faf565b005b34801561033557600080fd5b50610350600480360381019061034b91906113d4565b611164565b60405161035d9190611835565b60405180910390f35b34801561037257600080fd5b5061037b611192565b6040516103889190611835565b60405180910390f35b34801561039d57600080fd5b506103b860048036038101906103b39190611469565b61119a565b6040516103c59190611721565b60405180910390f35b600034116103db57600080fd5b565b600080600360003373ffffffffffffffffffffffffffffffffffffffff1673ffffffffffffffffffffffffffffffffffffffff1681526020019081526020016000206001015411905090565b60006104358383610631565b90508034101561047a576040517f08c379a000000000000000000000000000000000000000000000000000000000815260040161047190611795565b60405180910390fd5b6000339080600181540180825580915050600190039060005260206000200160009091909190916101000a81548173ffffffffffffffffffffffffffffffffffffffff021916908373ffffffffffffffffffffffffffffffffffffffff160217905550604051806060016040528084815260200183815260200182815250600360003373ffffffffffffffffffffffffffffffffffffffff1673ffffffffffffffffffffffffffffffffffffffff16815260200190815260200160002060008201518160000190805190602001906105539291906111d9565b5060208201518160010155604082015181600201559050503373ffffffffffffffffffffffffffffffffffffffff167f85ff97c998a767fb37fa49681d48c5636ab85a4426f09ab1052680c013a03ab6826040516105b19190611835565b60405180910390a280341115610614573373ffffffffffffffffffffffffffffffffffffffff166108fc82346105e791906119c4565b9081150290604051600060405180830381858888f19350505050158015610612573d6000803e3d6000fd5b505b505050565b60016020528060005260406000206000915090505481565b60008060048460405161064491906116f5565b90815260200160405180910390205411610693576040517f08c379a000000000000000000000000000000000000000000000000000000000815260040161068a906117d5565b60405180910390fd5b6305f5e100612710836004866040516106ac91906116f5565b9081526020016040518091039020546106c5919061196a565b6106cf9190611939565b6106d991906118e3565b905092915050565b60025481565b7f000000000000000000000000000000000000000000000000000000000000000081565b600360205280600052604060002060009150905080600001805461072e90611a82565b80601f016020809104026020016040519081016040528092919081815260200182805461075a90611a82565b80156107a75780601f1061077c576101008083540402835291602001916107a7565b820191906000526020600020905b81548152906001019060200180831161078a57829003601f168201915b5050505050908060010154908060020154905083565b7f000000000000000000000000000000000000000000000000000000000000000073ffffffffffffffffffffffffffffffffffffffff163373ffffffffffffffffffffffffffffffffffffffff161461084b576040517f08c379a0000000000000000000000000000000000000000000000000000000008152600401610842906117b5565b60405180910390fd5b60003373ffffffffffffffffffffffffffffffffffffffff16476040516108719061170c565b60006040518083038185875af1925050503d80600081146108ae576040519150601f19603f3d011682016040523d82523d6000602084013e6108b3565b606091505b50509050806108c157600080fd5b50565b7f000000000000000000000000000000000000000000000000000000000000000073ffffffffffffffffffffffffffffffffffffffff163373ffffffffffffffffffffffffffffffffffffffff1614610952576040517f08c379a0000000000000000000000000000000000000000000000000000000008152600401610949906117b5565b60405180910390fd5b60008061095f919061125f565b60005b600080549050811015610aed57600160008083815481106109ac577f4e487b7100000000000000000000000000000000000000000000000000000000600052603260045260246000fd5b9060005260206000200160009054906101000a900473ffffffffffffffffffffffffffffffffffffffff1673ffffffffffffffffffffffffffffffffffffffff1673ffffffffffffffffffffffffffffffffffffffff1681526020019081526020016000206000905560036000808381548110610a52577f4e487b7100000000000000000000000000000000000000000000000000000000600052603260045260246000fd5b9060005260206000200160009054906101000a900473ffffffffffffffffffffffffffffffffffffffff1673ffffffffffffffffffffffffffffffffffffffff1673ffffffffffffffffffffffffffffffffffffffff16815260200190815260200160002060008082016000610ac89190611280565b6001820160009055600282016000905550508080610ae590611ab4565b915050610962565b50565b7f000000000000000000000000000000000000000000000000000000000000000073ffffffffffffffffffffffffffffffffffffffff163373ffffffffffffffffffffffffffffffffffffffff1614610b7e576040517f08c379a0000000000000000000000000000000000000000000000000000000008152600401610b75906117b5565b60405180910390fd5b600254471015610bc3576040517f08c379a0000000000000000000000000000000000000000000000000000000008152600401610bba90611815565b60405180910390fd5b60005b600080549050811015610dee576000808281548110610c0e577f4e487b7100000000000000000000000000000000000000000000000000000000600052603260045260246000fd5b9060005260206000200160009054906101000a900473ffffffffffffffffffffffffffffffffffffffff169050600060016000808581548110610c7a577f4e487b7100000000000000000000000000000000000000000000000000000000600052603260045260246000fd5b9060005260206000200160009054906101000a900473ffffffffffffffffffffffffffffffffffffffff1673ffffffffffffffffffffffffffffffffffffffff1673ffffffffffffffffffffffffffffffffffffffff1681526020019081526020016000205490506000811115610dd9578173ffffffffffffffffffffffffffffffffffffffff166108fc829081150290604051600060405180830381858888f19350505050158015610d31573d6000803e3d6000fd5b5060016000808581548110610d6f577f4e487b7100000000000000000000000000000000000000000000000000000000600052603260045260246000fd5b9060005260206000200160009054906101000a900473ffffffffffffffffffffffffffffffffffffffff1673ffffffffffffffffffffffffffffffffffffffff1673ffffffffffffffffffffffffffffffffffffffff168152602001908152602001600020600090555b50508080610de690611ab4565b915050610bc6565b506000600281905550565b7f000000000000000000000000000000000000000000000000000000000000000073ffffffffffffffffffffffffffffffffffffffff163373ffffffffffffffffffffffffffffffffffffffff1614610e87576040517f08c379a0000000000000000000000000000000000000000000000000000000008152600401610e7e906117b5565b60405180910390fd5b80600483604051610e9891906116f5565b9081526020016040518091039020819055505050565b7f000000000000000000000000000000000000000000000000000000000000000073ffffffffffffffffffffffffffffffffffffffff163373ffffffffffffffffffffffffffffffffffffffff1614610f3c576040517f08c379a0000000000000000000000000000000000000000000000000000000008152600401610f33906117b5565b60405180910390fd5b80600160008473ffffffffffffffffffffffffffffffffffffffff1673ffffffffffffffffffffffffffffffffffffffff1681526020019081526020016000206000828254610f8b91906118e3565b925050819055508060026000828254610fa491906118e3565b925050819055505050565b6000600160003373ffffffffffffffffffffffffffffffffffffffff1673ffffffffffffffffffffffffffffffffffffffff1681526020019081526020016000205411611031576040517f08c379a0000000000000000000000000000000000000000000000000000000008152600401611028906117f5565b60405180910390fd5b60003390506000600160003373ffffffffffffffffffffffffffffffffffffffff1673ffffffffffffffffffffffffffffffffffffffff168152602001908152602001600020549050804710156110bd576040517f08c379a00000000000000000000000000000000000000000000000000000000081526004016110b490611815565b60405180910390fd5b8173ffffffffffffffffffffffffffffffffffffffff166108fc829081150290604051600060405180830381858888f19350505050158015611103573d6000803e3d6000fd5b50806002600082825461111691906119c4565b92505081905550600160003373ffffffffffffffffffffffffffffffffffffffff1673ffffffffffffffffffffffffffffffffffffffff168152602001908152602001600020600090555050565b6004818051602081018201805184825260208301602085012081835280955050505050506000915090505481565b600047905090565b600081815481106111aa57600080fd5b906000526020600020016000915054906101000a900473ffffffffffffffffffffffffffffffffffffffff1681565b8280546111e590611a82565b90600052602060002090601f016020900481019282611207576000855561124e565b82601f1061122057805160ff191683800117855561124e565b8280016001018555821561124e579182015b8281111561124d578251825591602001919060010190611232565b5b50905061125b91906112c0565b5090565b508054600082559060005260206000209081019061127d91906112c0565b50565b50805461128c90611a82565b6000825580601f1061129e57506112bd565b601f0160209004906000526020600020908101906112bc91906112c0565b5b50565b5b808211156112d95760008160009055506001016112c1565b5090565b60006112f06112eb84611881565b611850565b90508281526020810184848401111561130857600080fd5b611313848285611a40565b509392505050565b60008135905061132a81611bca565b92915050565b600082601f83011261134157600080fd5b81356113518482602086016112dd565b91505092915050565b60008135905061136981611be1565b92915050565b60006020828403121561138157600080fd5b600061138f8482850161131b565b91505092915050565b600080604083850312156113ab57600080fd5b60006113b98582860161131b565b92505060206113ca8582860161135a565b9150509250929050565b6000602082840312156113e657600080fd5b600082013567ffffffffffffffff81111561140057600080fd5b61140c84828501611330565b91505092915050565b6000806040838503121561142857600080fd5b600083013567ffffffffffffffff81111561144257600080fd5b61144e85828601611330565b925050602061145f8582860161135a565b9150509250929050565b60006020828403121561147b57600080fd5b60006114898482850161135a565b91505092915050565b61149b816119f8565b82525050565b6114aa81611a0a565b82525050565b60006114bb826118b1565b6114c581856118c7565b93506114d5818560208601611a4f565b6114de81611bb9565b840191505092915050565b60006114f4826118b1565b6114fe81856118d8565b935061150e818560208601611a4f565b80840191505092915050565b6000611527602b836118c7565b91507f496e73756666696369656e742065746865722073656e7420666f7220696e737560008301527f72616e63652070726963650000000000000000000000000000000000000000006020830152604082019050919050565b600061158d602b836118c7565b91507f4f6e6c7920636f6e7472616374206f776e65722063616e20706572666f726d2060008301527f7468697320616374696f6e0000000000000000000000000000000000000000006020830152604082019050919050565b60006115f36017836118c7565b91507f43726f702074797065206e6f7420737570706f727465640000000000000000006000830152602082019050919050565b60006116336000836118bc565b9150600082019050919050565b600061164d6030836118c7565b91507f596f7520617265206e6f7420656e7469746c656420746f20776974686472617760008301527f20696e737572616e6365206d6f6e6579000000000000000000000000000000006020830152604082019050919050565b60006116b3601d836118c7565b91507f496e73756666696369656e7420636f6e74726163742062616c616e63650000006000830152602082019050919050565b6116ef81611a36565b82525050565b600061170182846114e9565b915081905092915050565b600061171782611626565b9150819050919050565b60006020820190506117366000830184611492565b92915050565b600060208201905061175160008301846114a1565b92915050565b6000606082019050818103600083015261177181866114b0565b905061178060208301856116e6565b61178d60408301846116e6565b949350505050565b600060208201905081810360008301526117ae8161151a565b9050919050565b600060208201905081810360008301526117ce81611580565b9050919050565b600060208201905081810360008301526117ee816115e6565b9050919050565b6000602082019050818103600083015261180e81611640565b9050919050565b6000602082019050818103600083015261182e816116a6565b9050919050565b600060208201905061184a60008301846116e6565b92915050565b6000604051905081810181811067ffffffffffffffff8211171561187757611876611b8a565b5b8060405250919050565b600067ffffffffffffffff82111561189c5761189b611b8a565b5b601f19601f8301169050602081019050919050565b600081519050919050565b600081905092915050565b600082825260208201905092915050565b600081905092915050565b60006118ee82611a36565b91506118f983611a36565b9250827fffffffffffffffffffffffffffffffffffffffffffffffffffffffffffffffff0382111561192e5761192d611afd565b5b828201905092915050565b600061194482611a36565b915061194f83611a36565b92508261195f5761195e611b2c565b5b828204905092915050565b600061197582611a36565b915061198083611a36565b9250817fffffffffffffffffffffffffffffffffffffffffffffffffffffffffffffffff04831182151516156119b9576119b8611afd565b5b828202905092915050565b60006119cf82611a36565b91506119da83611a36565b9250828210156119ed576119ec611afd565b5b828203905092915050565b6000611a0382611a16565b9050919050565b60008115159050919050565b600073ffffffffffffffffffffffffffffffffffffffff82169050919050565b6000819050919050565b82818337600083830152505050565b60005b83811015611a6d578082015181840152602081019050611a52565b83811115611a7c576000848401525b50505050565b60006002820490506001821680611a9a57607f821691505b60208210811415611aae57611aad611b5b565b5b50919050565b6000611abf82611a36565b91507fffffffffffffffffffffffffffffffffffffffffffffffffffffffffffffffff821415611af257611af1611afd565b5b600182019050919050565b7f4e487b7100000000000000000000000000000000000000000000000000000000600052601160045260246000fd5b7f4e487b7100000000000000000000000000000000000000000000000000000000600052601260045260246000fd5b7f4e487b7100000000000000000000000000000000000000000000000000000000600052602260045260246000fd5b7f4e487b7100000000000000000000000000000000000000000000000000000000600052604160045260246000fd5b6000601f19601f8301169050919050565b611bd3816119f8565b8114611bde57600080fd5b50565b611bea81611a36565b8114611bf557600080fd5b5056fea264697066735822122005f9afec8e81bf6f2e78fe7d7cb1f6668430246079c6be51639201fb55da334364736f6c63430008000033",
    "linkReferences": {},
    "deployedLinkReferences": {}
}